{
  "_format": "hh-sol-artifact-1",
  "contractName": "MyEpicNFT",
  "sourceName": "contracts/MyEpicNFT.sol",
  "abi": [
    {
      "inputs": [],
      "stateMutability": "nonpayable",
      "type": "constructor"
    },
    {
      "anonymous": false,
      "inputs": [
        {
          "indexed": true,
          "internalType": "address",
          "name": "owner",
          "type": "address"
        },
        {
          "indexed": true,
          "internalType": "address",
          "name": "approved",
          "type": "address"
        },
        {
          "indexed": true,
          "internalType": "uint256",
          "name": "tokenId",
          "type": "uint256"
        }
      ],
      "name": "Approval",
      "type": "event"
    },
    {
      "anonymous": false,
      "inputs": [
        {
          "indexed": true,
          "internalType": "address",
          "name": "owner",
          "type": "address"
        },
        {
          "indexed": true,
          "internalType": "address",
          "name": "operator",
          "type": "address"
        },
        {
          "indexed": false,
          "internalType": "bool",
          "name": "approved",
          "type": "bool"
        }
      ],
      "name": "ApprovalForAll",
      "type": "event"
    },
    {
      "anonymous": false,
      "inputs": [
        {
          "indexed": false,
          "internalType": "address",
          "name": "sender",
          "type": "address"
        },
        {
          "indexed": false,
          "internalType": "uint256",
          "name": "tokenId",
          "type": "uint256"
        }
      ],
      "name": "NewEpicNFTMinted",
      "type": "event"
    },
    {
      "anonymous": false,
      "inputs": [
        {
          "indexed": true,
          "internalType": "address",
          "name": "from",
          "type": "address"
        },
        {
          "indexed": true,
          "internalType": "address",
          "name": "to",
          "type": "address"
        },
        {
          "indexed": true,
          "internalType": "uint256",
          "name": "tokenId",
          "type": "uint256"
        }
      ],
      "name": "Transfer",
      "type": "event"
    },
    {
      "inputs": [
        {
          "internalType": "address",
          "name": "to",
          "type": "address"
        },
        {
          "internalType": "uint256",
          "name": "tokenId",
          "type": "uint256"
        }
      ],
      "name": "approve",
      "outputs": [],
      "stateMutability": "nonpayable",
      "type": "function"
    },
    {
      "inputs": [
        {
          "internalType": "address",
          "name": "owner",
          "type": "address"
        }
      ],
      "name": "balanceOf",
      "outputs": [
        {
          "internalType": "uint256",
          "name": "",
          "type": "uint256"
        }
      ],
      "stateMutability": "view",
      "type": "function"
    },
    {
      "inputs": [
        {
          "internalType": "uint256",
          "name": "tokenId",
          "type": "uint256"
        }
      ],
      "name": "getApproved",
      "outputs": [
        {
          "internalType": "address",
          "name": "",
          "type": "address"
        }
      ],
      "stateMutability": "view",
      "type": "function"
    },
    {
      "inputs": [],
      "name": "getTotalNFTsMinted",
      "outputs": [
        {
          "internalType": "uint256",
          "name": "_totalNFTsMinted",
          "type": "uint256"
        }
      ],
      "stateMutability": "view",
      "type": "function"
    },
    {
      "inputs": [
        {
          "internalType": "address",
          "name": "owner",
          "type": "address"
        },
        {
          "internalType": "address",
          "name": "operator",
          "type": "address"
        }
      ],
      "name": "isApprovedForAll",
      "outputs": [
        {
          "internalType": "bool",
          "name": "",
          "type": "bool"
        }
      ],
      "stateMutability": "view",
      "type": "function"
    },
    {
      "inputs": [],
      "name": "makeAnEpicNFT",
      "outputs": [],
      "stateMutability": "nonpayable",
      "type": "function"
    },
    {
      "inputs": [],
      "name": "maxTokens",
      "outputs": [
        {
          "internalType": "uint256",
          "name": "",
          "type": "uint256"
        }
      ],
      "stateMutability": "view",
      "type": "function"
    },
    {
      "inputs": [],
      "name": "name",
      "outputs": [
        {
          "internalType": "string",
          "name": "",
          "type": "string"
        }
      ],
      "stateMutability": "view",
      "type": "function"
    },
    {
      "inputs": [
        {
          "internalType": "uint256",
          "name": "tokenId",
          "type": "uint256"
        }
      ],
      "name": "ownerOf",
      "outputs": [
        {
          "internalType": "address",
          "name": "",
          "type": "address"
        }
      ],
      "stateMutability": "view",
      "type": "function"
    },
    {
      "inputs": [
        {
          "internalType": "uint256",
          "name": "tokenId",
          "type": "uint256"
        }
      ],
      "name": "pickRandomFirstWord",
      "outputs": [
        {
          "internalType": "string",
          "name": "",
          "type": "string"
        }
      ],
      "stateMutability": "view",
      "type": "function"
    },
    {
      "inputs": [
        {
          "internalType": "uint256",
          "name": "tokenId",
          "type": "uint256"
        }
      ],
      "name": "pickRandomSecondWord",
      "outputs": [
        {
          "internalType": "string",
          "name": "",
          "type": "string"
        }
      ],
      "stateMutability": "view",
      "type": "function"
    },
    {
      "inputs": [
        {
          "internalType": "uint256",
          "name": "tokenId",
          "type": "uint256"
        }
      ],
      "name": "pickRandomThirdWord",
      "outputs": [
        {
          "internalType": "string",
          "name": "",
          "type": "string"
        }
      ],
      "stateMutability": "view",
      "type": "function"
    },
    {
      "inputs": [],
      "name": "remainingNFTs",
      "outputs": [
        {
          "internalType": "uint256",
          "name": "_remainingNFTs",
          "type": "uint256"
        }
      ],
      "stateMutability": "view",
      "type": "function"
    },
    {
      "inputs": [
        {
          "internalType": "address",
          "name": "from",
          "type": "address"
        },
        {
          "internalType": "address",
          "name": "to",
          "type": "address"
        },
        {
          "internalType": "uint256",
          "name": "tokenId",
          "type": "uint256"
        }
      ],
      "name": "safeTransferFrom",
      "outputs": [],
      "stateMutability": "nonpayable",
      "type": "function"
    },
    {
      "inputs": [
        {
          "internalType": "address",
          "name": "from",
          "type": "address"
        },
        {
          "internalType": "address",
          "name": "to",
          "type": "address"
        },
        {
          "internalType": "uint256",
          "name": "tokenId",
          "type": "uint256"
        },
        {
          "internalType": "bytes",
          "name": "_data",
          "type": "bytes"
        }
      ],
      "name": "safeTransferFrom",
      "outputs": [],
      "stateMutability": "nonpayable",
      "type": "function"
    },
    {
      "inputs": [
        {
          "internalType": "address",
          "name": "operator",
          "type": "address"
        },
        {
          "internalType": "bool",
          "name": "approved",
          "type": "bool"
        }
      ],
      "name": "setApprovalForAll",
      "outputs": [],
      "stateMutability": "nonpayable",
      "type": "function"
    },
    {
      "inputs": [
        {
          "internalType": "bytes4",
          "name": "interfaceId",
          "type": "bytes4"
        }
      ],
      "name": "supportsInterface",
      "outputs": [
        {
          "internalType": "bool",
          "name": "",
          "type": "bool"
        }
      ],
      "stateMutability": "view",
      "type": "function"
    },
    {
      "inputs": [],
      "name": "symbol",
      "outputs": [
        {
          "internalType": "string",
          "name": "",
          "type": "string"
        }
      ],
      "stateMutability": "view",
      "type": "function"
    },
    {
      "inputs": [
        {
          "internalType": "uint256",
          "name": "tokenId",
          "type": "uint256"
        }
      ],
      "name": "tokenURI",
      "outputs": [
        {
          "internalType": "string",
          "name": "",
          "type": "string"
        }
      ],
      "stateMutability": "view",
      "type": "function"
    },
    {
      "inputs": [
        {
          "internalType": "address",
          "name": "from",
          "type": "address"
        },
        {
          "internalType": "address",
          "name": "to",
          "type": "address"
        },
        {
          "internalType": "uint256",
          "name": "tokenId",
          "type": "uint256"
        }
      ],
      "name": "transferFrom",
      "outputs": [],
      "stateMutability": "nonpayable",
      "type": "function"
    }
  ],
  "bytecode": "0x6080604052603260085560405180610160016040528061012f815260200162004a0f61012f9139600990805190602001906200003d92919062000ca3565b50604051806101e001604052806040518060400160405280600681526020017f4c6f6e656c79000000000000000000000000000000000000000000000000000081525081526020016040518060400160405280600581526020017f486170707900000000000000000000000000000000000000000000000000000081525081526020016040518060400160405280600881526020017f42656775696c656400000000000000000000000000000000000000000000000081525081526020016040518060400160405280600981526020017f496e64656c69626c65000000000000000000000000000000000000000000000081525081526020016040518060400160405280600a81526020017f496e7361746961626c650000000000000000000000000000000000000000000081525081526020016040518060400160405280600781526020017f526576657265640000000000000000000000000000000000000000000000000081525081526020016040518060400160405280600581526020017f486f726e7900000000000000000000000000000000000000000000000000000081525081526020016040518060400160405280600d81526020017f53616e6374696d6f6e696f75730000000000000000000000000000000000000081525081526020016040518060400160405280600581526020017f50696f757300000000000000000000000000000000000000000000000000000081525081526020016040518060400160405280600b81526020017f446f6d696e656572696e6700000000000000000000000000000000000000000081525081526020016040518060400160405280600881526020017f446570726176656400000000000000000000000000000000000000000000000081525081526020016040518060400160405280600d81526020017f5265686162696c6974617465640000000000000000000000000000000000000081525081526020016040518060400160405280600a81526020017f4e6968696c69737469630000000000000000000000000000000000000000000081525081526020016040518060400160405280600a81526020017f416c74727569737469630000000000000000000000000000000000000000000081525081526020016040518060400160405280600881526020017f54726f75626c6564000000000000000000000000000000000000000000000000815250815250600a90600f620003cf92919062000d34565b50604051806101e001604052806040518060400160405280600981526020017f437261636b68656164000000000000000000000000000000000000000000000081525081526020016040518060400160405280600581526020017f4669656e6400000000000000000000000000000000000000000000000000000081525081526020016040518060400160405280600781526020017f4772656d6c696e0000000000000000000000000000000000000000000000000081525081526020016040518060400160405280600581526020017f47686f737400000000000000000000000000000000000000000000000000000081525081526020016040518060400160405280600581526020017f44656d6f6e00000000000000000000000000000000000000000000000000000081525081526020016040518060400160405280600681526020017f4d61646d616e000000000000000000000000000000000000000000000000000081525081526020016040518060400160405280600981526020017f566967696c616e7465000000000000000000000000000000000000000000000081525081526020016040518060400160405280600681526020017f4765657a6572000000000000000000000000000000000000000000000000000081525081526020016040518060400160405280600681526020017f4a756e6b6965000000000000000000000000000000000000000000000000000081525081526020016040518060400160405280600a81526020017f506f6c6974696369616e0000000000000000000000000000000000000000000081525081526020016040518060400160405280600981526020017f506f6c6963656d616e000000000000000000000000000000000000000000000081525081526020016040518060400160405280600481526020017f47696d700000000000000000000000000000000000000000000000000000000081525081526020016040518060400160405280600781526020017f576565646d616e0000000000000000000000000000000000000000000000000081525081526020016040518060400160405280600781526020017f43756c746973740000000000000000000000000000000000000000000000000081525081526020016040518060400160405280600a81526020017f41726973746f6372617400000000000000000000000000000000000000000000815250815250600b90600f6200076192919062000d34565b50604051806101e001604052806040518060400160405280600481526020017f446965730000000000000000000000000000000000000000000000000000000081525081526020016040518060400160405280600781526020017f4177616b656e730000000000000000000000000000000000000000000000000081525081526020016040518060400160405280600d81526020017f446973696e74656772617465730000000000000000000000000000000000000081525081526020016040518060400160405280600981526020017f5769746e6573736573000000000000000000000000000000000000000000000081525081526020016040518060400160405280600881526020017f44657374726f797300000000000000000000000000000000000000000000000081525081526020016040518060400160405280600b81526020017f436f6e747269627574657300000000000000000000000000000000000000000081525081526020016040518060400160405280600881526020017f436f6e666f726d7300000000000000000000000000000000000000000000000081525081526020016040518060400160405280600b81526020017f4469736170706f696e747300000000000000000000000000000000000000000081525081526020016040518060400160405280600b81526020017f5265766974616c6973657300000000000000000000000000000000000000000081525081526020016040518060400160405280600c81526020017f506f6e746966696361746573000000000000000000000000000000000000000081525081526020016040518060400160405280600581526020017f437269657300000000000000000000000000000000000000000000000000000081525081526020016040518060400160405280600481526020017f53696e730000000000000000000000000000000000000000000000000000000081525081526020016040518060400160405280600b81526020017f52656576616c756174657300000000000000000000000000000000000000000081525081526020016040518060400160405280600c81526020017f50726f73656c7974697a6573000000000000000000000000000000000000000081525081526020016040518060400160405280600881526020017f436f6e6365616c73000000000000000000000000000000000000000000000000815250815250600c90600f62000af392919062000d34565b5034801562000b0157600080fd5b506040518060400160405280600981526020017f5371756172654e465400000000000000000000000000000000000000000000008152506040518060400160405280600681526020017f5351554152450000000000000000000000000000000000000000000000000000815250816000908051906020019062000b8692919062000ca3565b50806001908051906020019062000b9f92919062000ca3565b50505062000bd16040518060600160405280603a815260200162004b3e603a913962000bd760201b620013331760201c565b62000f55565b62000c778160405160240162000bee919062000e69565b6040516020818303038152906040527f41304fac000000000000000000000000000000000000000000000000000000007bffffffffffffffffffffffffffffffffffffffffffffffffffffffff19166020820180517bffffffffffffffffffffffffffffffffffffffffffffffffffffffff838183161783525050505062000c7a60201b60201c565b50565b60008151905060006a636f6e736f6c652e6c6f679050602083016000808483855afa5050505050565b82805462000cb19062000edf565b90600052602060002090601f01602090048101928262000cd5576000855562000d21565b82601f1062000cf057805160ff191683800117855562000d21565b8280016001018555821562000d21579182015b8281111562000d2057825182559160200191906001019062000d03565b5b50905062000d30919062000d9b565b5090565b82805482825590600052602060002090810192821562000d88579160200282015b8281111562000d8757825182908051906020019062000d7692919062000ca3565b509160200191906001019062000d55565b5b50905062000d97919062000dba565b5090565b5b8082111562000db657600081600090555060010162000d9c565b5090565b5b8082111562000dde576000818162000dd4919062000de2565b5060010162000dbb565b5090565b50805462000df09062000edf565b6000825580601f1062000e04575062000e25565b601f01602090049060005260206000209081019062000e24919062000d9b565b5b50565b600062000e358262000e8d565b62000e41818562000e98565b935062000e5381856020860162000ea9565b62000e5e8162000f44565b840191505092915050565b6000602082019050818103600083015262000e85818462000e28565b905092915050565b600081519050919050565b600082825260208201905092915050565b60005b8381101562000ec957808201518184015260208101905062000eac565b8381111562000ed9576000848401525b50505050565b6000600282049050600182168062000ef857607f821691505b6020821081141562000f0f5762000f0e62000f15565b5b50919050565b7f4e487b7100000000000000000000000000000000000000000000000000000000600052602260045260246000fd5b6000601f19601f8301169050919050565b613aaa8062000f656000396000f3fe608060405234801561001057600080fd5b506004361061012c5760003560e01c806395d89b41116100ad578063c575757a11610071578063c575757a14610355578063c87b56dd14610385578063de9d132f146103b5578063e8315742146103bf578063e985e9c5146103dd5761012c565b806395d89b41146102b1578063a22cb465146102cf578063b187301f146102eb578063b4c3b8be1461031b578063b88d4fde146103395761012c565b806323b872dd116100f457806323b872dd146101e95780632de38d681461020557806342842e0e146102355780636352211e1461025157806370a08231146102815761012c565b806301ffc9a71461013157806304bffefd1461016157806306fdde031461017f578063081812fc1461019d578063095ea7b3146101cd575b600080fd5b61014b600480360381019061014691906125c6565b61040d565b6040516101589190613300565b60405180910390f35b6101696104ef565b604051610176919061359b565b60405180910390f35b61018761050b565b604051610194919061331b565b60405180910390f35b6101b760048036038101906101b29190612618565b61059d565b6040516101c49190613270565b60405180910390f35b6101e760048036038101906101e2919061258a565b610622565b005b61020360048036038101906101fe9190612484565b61073a565b005b61021f600480360381019061021a9190612618565b61079a565b60405161022c919061331b565b60405180910390f35b61024f600480360381019061024a9190612484565b6108b8565b005b61026b60048036038101906102669190612618565b6108d8565b6040516102789190613270565b60405180910390f35b61029b6004803603810190610296919061241f565b61098a565b6040516102a8919061359b565b60405180910390f35b6102b9610a42565b6040516102c6919061331b565b60405180910390f35b6102e960048036038101906102e4919061254e565b610ad4565b005b61030560048036038101906103009190612618565b610c55565b604051610312919061331b565b60405180910390f35b610323610d73565b604051610330919061359b565b60405180910390f35b610353600480360381019061034e91906124d3565b610d90565b005b61036f600480360381019061036a9190612618565b610df2565b60405161037c919061331b565b60405180910390f35b61039f600480360381019061039a9190612618565b610f10565b6040516103ac919061331b565b60405180910390f35b6103bd611062565b005b6103c7611299565b6040516103d4919061359b565b60405180910390f35b6103f760048036038101906103f29190612448565b61129f565b6040516104049190613300565b60405180910390f35b60007f80ac58cd000000000000000000000000000000000000000000000000000000007bffffffffffffffffffffffffffffffffffffffffffffffffffffffff1916827bffffffffffffffffffffffffffffffffffffffffffffffffffffffff191614806104d857507f5b5e139f000000000000000000000000000000000000000000000000000000007bffffffffffffffffffffffffffffffffffffffffffffffffffffffff1916827bffffffffffffffffffffffffffffffffffffffffffffffffffffffff1916145b806104e857506104e7826113cc565b5b9050919050565b60006104f9610d73565b6008546105069190613750565b905090565b60606000805461051a9061383a565b80601f01602080910402602001604051908101604052809291908181526020018280546105469061383a565b80156105935780601f1061056857610100808354040283529160200191610593565b820191906000526020600020905b81548152906001019060200180831161057657829003601f168201915b5050505050905090565b60006105a882611436565b6105e7576040517f08c379a00000000000000000000000000000000000000000000000000000000081526004016105de906134fb565b60405180910390fd5b6004600083815260200190815260200160002060009054906101000a900473ffffffffffffffffffffffffffffffffffffffff169050919050565b600061062d826108d8565b90508073ffffffffffffffffffffffffffffffffffffffff168373ffffffffffffffffffffffffffffffffffffffff16141561069e576040517f08c379a00000000000000000000000000000000000000000000000000000000081526004016106959061355b565b60405180910390fd5b8073ffffffffffffffffffffffffffffffffffffffff166106bd6114a2565b73ffffffffffffffffffffffffffffffffffffffff1614806106ec57506106eb816106e66114a2565b61129f565b5b61072b576040517f08c379a00000000000000000000000000000000000000000000000000000000081526004016107229061343b565b60405180910390fd5b61073583836114aa565b505050565b61074b6107456114a2565b82611563565b61078a576040517f08c379a00000000000000000000000000000000000000000000000000000000081526004016107819061357b565b60405180910390fd5b610795838383611641565b505050565b606060006107ce6107aa8461189d565b6040516020016107ba919061322c565b604051602081830303815290604052611a4a565b9050600a80549050816107e191906138b5565b9050600a818154811061081d577f4e487b7100000000000000000000000000000000000000000000000000000000600052603260045260246000fd5b9060005260206000200180546108329061383a565b80601f016020809104026020016040519081016040528092919081815260200182805461085e9061383a565b80156108ab5780601f10610880576101008083540402835291602001916108ab565b820191906000526020600020905b81548152906001019060200180831161088e57829003601f168201915b5050505050915050919050565b6108d383838360405180602001604052806000815250610d90565b505050565b6000806002600084815260200190815260200160002060009054906101000a900473ffffffffffffffffffffffffffffffffffffffff169050600073ffffffffffffffffffffffffffffffffffffffff168173ffffffffffffffffffffffffffffffffffffffff161415610981576040517f08c379a00000000000000000000000000000000000000000000000000000000081526004016109789061347b565b60405180910390fd5b80915050919050565b60008073ffffffffffffffffffffffffffffffffffffffff168273ffffffffffffffffffffffffffffffffffffffff1614156109fb576040517f08c379a00000000000000000000000000000000000000000000000000000000081526004016109f29061345b565b60405180910390fd5b600360008373ffffffffffffffffffffffffffffffffffffffff1673ffffffffffffffffffffffffffffffffffffffff168152602001908152602001600020549050919050565b606060018054610a519061383a565b80601f0160208091040260200160405190810160405280929190818152602001828054610a7d9061383a565b8015610aca5780601f10610a9f57610100808354040283529160200191610aca565b820191906000526020600020905b815481529060010190602001808311610aad57829003601f168201915b5050505050905090565b610adc6114a2565b73ffffffffffffffffffffffffffffffffffffffff168273ffffffffffffffffffffffffffffffffffffffff161415610b4a576040517f08c379a0000000000000000000000000000000000000000000000000000000008152600401610b41906133db565b60405180910390fd5b8060056000610b576114a2565b73ffffffffffffffffffffffffffffffffffffffff1673ffffffffffffffffffffffffffffffffffffffff16815260200190815260200160002060008473ffffffffffffffffffffffffffffffffffffffff1673ffffffffffffffffffffffffffffffffffffffff16815260200190815260200160002060006101000a81548160ff0219169083151502179055508173ffffffffffffffffffffffffffffffffffffffff16610c046114a2565b73ffffffffffffffffffffffffffffffffffffffff167f17307eab39ab6107e8899845ad3d59bd9653f200f220920489ca2b5937696c3183604051610c499190613300565b60405180910390a35050565b60606000610c89610c658461189d565b604051602001610c7591906131c5565b604051602081830303815290604052611a4a565b9050600b8054905081610c9c91906138b5565b9050600b8181548110610cd8577f4e487b7100000000000000000000000000000000000000000000000000000000600052603260045260246000fd5b906000526020600020018054610ced9061383a565b80601f0160208091040260200160405190810160405280929190818152602001828054610d199061383a565b8015610d665780601f10610d3b57610100808354040283529160200191610d66565b820191906000526020600020905b815481529060010190602001808311610d4957829003601f168201915b5050505050915050919050565b60006001610d816007611a7d565b610d8b919061366f565b905090565b610da1610d9b6114a2565b83611563565b610de0576040517f08c379a0000000000000000000000000000000000000000000000000000000008152600401610dd79061357b565b60405180910390fd5b610dec84848484611a8b565b50505050565b60606000610e26610e028461189d565b604051602001610e1291906131a3565b604051602081830303815290604052611a4a565b9050600c8054905081610e3991906138b5565b9050600c8181548110610e75577f4e487b7100000000000000000000000000000000000000000000000000000000600052603260045260246000fd5b906000526020600020018054610e8a9061383a565b80601f0160208091040260200160405190810160405280929190818152602001828054610eb69061383a565b8015610f035780601f10610ed857610100808354040283529160200191610f03565b820191906000526020600020905b815481529060010190602001808311610ee657829003601f168201915b5050505050915050919050565b6060610f1b82611436565b610f5a576040517f08c379a0000000000000000000000000000000000000000000000000000000008152600401610f51906134db565b60405180910390fd5b6000600660008481526020019081526020016000208054610f7a9061383a565b80601f0160208091040260200160405190810160405280929190818152602001828054610fa69061383a565b8015610ff35780601f10610fc857610100808354040283529160200191610ff3565b820191906000526020600020905b815481529060010190602001808311610fd657829003601f168201915b505050505090506000611004611ae7565b905060008151141561101a57819250505061105d565b60008251111561104f578082604051602001611037929190613105565b6040516020818303038152906040529250505061105d565b61105884611afe565b925050505b919050565b60085461106d610d73565b11156110ae576040517f08c379a00000000000000000000000000000000000000000000000000000000081526004016110a5906133fb565b60405180910390fd5b60006110ba6007611a7d565b905060006110c78261079a565b905060006110d483610c55565b905060006110e184610df2565b905060008383836040516020016110fa93929190613129565b604051602081830303815290604052905060006009858585604051602001611125949392919061315a565b6040516020818303038152906040529050600061116a8361114584611ba5565b6040516020016111569291906131e7565b604051602081830303815290604052611ba5565b905060008160405160200161117f919061324e565b60405160208183030381529060405290506111ce6040518060400160405280601581526020017f0a2d2d2d2d2d2d2d2d2d2d2d2d2d2d2d2d2d2d2d2d0000000000000000000000815250611333565b6111d781611333565b6112156040518060400160405280601581526020017f2d2d2d2d2d2d2d2d2d2d2d2d2d2d2d2d2d2d2d2d0a0000000000000000000000815250611333565b61121f3389611d63565b6112298882611d81565b6112336007611df5565b611256604051806060016040528060258152602001613a10602591398933611e0b565b7febb98688741ffa4c7589bf325de30cf7becb63de567842e1ccdb6cb949fdc82c33896040516112879291906132d7565b60405180910390a15050505050505050565b60085481565b6000600560008473ffffffffffffffffffffffffffffffffffffffff1673ffffffffffffffffffffffffffffffffffffffff16815260200190815260200160002060008373ffffffffffffffffffffffffffffffffffffffff1673ffffffffffffffffffffffffffffffffffffffff16815260200190815260200160002060009054906101000a900460ff16905092915050565b6113c981604051602401611347919061331b565b6040516020818303038152906040527f41304fac000000000000000000000000000000000000000000000000000000007bffffffffffffffffffffffffffffffffffffffffffffffffffffffff19166020820180517bffffffffffffffffffffffffffffffffffffffffffffffffffffffff8381831617835250505050611eaa565b50565b60007f01ffc9a7000000000000000000000000000000000000000000000000000000007bffffffffffffffffffffffffffffffffffffffffffffffffffffffff1916827bffffffffffffffffffffffffffffffffffffffffffffffffffffffff1916149050919050565b60008073ffffffffffffffffffffffffffffffffffffffff166002600084815260200190815260200160002060009054906101000a900473ffffffffffffffffffffffffffffffffffffffff1673ffffffffffffffffffffffffffffffffffffffff1614159050919050565b600033905090565b816004600083815260200190815260200160002060006101000a81548173ffffffffffffffffffffffffffffffffffffffff021916908373ffffffffffffffffffffffffffffffffffffffff160217905550808273ffffffffffffffffffffffffffffffffffffffff1661151d836108d8565b73ffffffffffffffffffffffffffffffffffffffff167f8c5be1e5ebec7d5bd14f71427d1e84f3dd0314c0f7b2291e5b200ac8c7c3b92560405160405180910390a45050565b600061156e82611436565b6115ad576040517f08c379a00000000000000000000000000000000000000000000000000000000081526004016115a49061341b565b60405180910390fd5b60006115b8836108d8565b90508073ffffffffffffffffffffffffffffffffffffffff168473ffffffffffffffffffffffffffffffffffffffff16148061162757508373ffffffffffffffffffffffffffffffffffffffff1661160f8461059d565b73ffffffffffffffffffffffffffffffffffffffff16145b806116385750611637818561129f565b5b91505092915050565b8273ffffffffffffffffffffffffffffffffffffffff16611661826108d8565b73ffffffffffffffffffffffffffffffffffffffff16146116b7576040517f08c379a00000000000000000000000000000000000000000000000000000000081526004016116ae9061351b565b60405180910390fd5b600073ffffffffffffffffffffffffffffffffffffffff168273ffffffffffffffffffffffffffffffffffffffff161415611727576040517f08c379a000000000000000000000000000000000000000000000000000000000815260040161171e906133bb565b60405180910390fd5b611732838383611ed3565b61173d6000826114aa565b6001600360008573ffffffffffffffffffffffffffffffffffffffff1673ffffffffffffffffffffffffffffffffffffffff168152602001908152602001600020600082825461178d9190613750565b925050819055506001600360008473ffffffffffffffffffffffffffffffffffffffff1673ffffffffffffffffffffffffffffffffffffffff16815260200190815260200160002060008282546117e4919061366f565b92505081905550816002600083815260200190815260200160002060006101000a81548173ffffffffffffffffffffffffffffffffffffffff021916908373ffffffffffffffffffffffffffffffffffffffff160217905550808273ffffffffffffffffffffffffffffffffffffffff168473ffffffffffffffffffffffffffffffffffffffff167fddf252ad1be2c89b69c2b068fc378daa952ba7f163c4a11628f55a4df523b3ef60405160405180910390a4505050565b606060008214156118e5576040518060400160405280600181526020017f30000000000000000000000000000000000000000000000000000000000000008152509050611a45565b600082905060005b600082146119175780806119009061386c565b915050600a8261191091906136c5565b91506118ed565b60008167ffffffffffffffff811115611959577f4e487b7100000000000000000000000000000000000000000000000000000000600052604160045260246000fd5b6040519080825280601f01601f19166020018201604052801561198b5781602001600182028036833780820191505090505b5090505b60008514611a3e576001826119a49190613750565b9150600a856119b391906138b5565b60306119bf919061366f565b60f81b8183815181106119fb577f4e487b7100000000000000000000000000000000000000000000000000000000600052603260045260246000fd5b60200101907effffffffffffffffffffffffffffffffffffffffffffffffffffffffffffff1916908160001a905350600a85611a3791906136c5565b945061198f565b8093505050505b919050565b600081604051602001611a5d91906130ee565b6040516020818303038152906040528051906020012060001c9050919050565b600081600001549050919050565b611a96848484611641565b611aa284848484611ed8565b611ae1576040517f08c379a0000000000000000000000000000000000000000000000000000000008152600401611ad89061337b565b60405180910390fd5b50505050565b606060405180602001604052806000815250905090565b6060611b0982611436565b611b48576040517f08c379a0000000000000000000000000000000000000000000000000000000008152600401611b3f9061353b565b60405180910390fd5b6000611b52611ae7565b90506000815111611b725760405180602001604052806000815250611b9d565b80611b7c8461189d565b604051602001611b8d929190613105565b6040516020818303038152906040525b915050919050565b60606000825190506000811415611bce5760405180602001604052806000815250915050611d5e565b60006003600283611bdf919061366f565b611be991906136c5565b6004611bf591906136f6565b90506000602082611c06919061366f565b67ffffffffffffffff811115611c45577f4e487b7100000000000000000000000000000000000000000000000000000000600052604160045260246000fd5b6040519080825280601f01601f191660200182016040528015611c775781602001600182028036833780820191505090505b5090506000604051806060016040528060408152602001613a35604091399050600181016020830160005b86811015611d1b5760038101905062ffffff818a015116603f8160121c168401518060081b905060ff603f83600c1c1686015116810190508060081b905060ff603f8360061c1686015116810190508060081b905060ff603f831686015116810190508060e01b90508084526004840193505050611ca2565b506003860660018114611d355760028114611d4557611d50565b613d3d60f01b6002830352611d50565b603d60f81b60018303525b508484525050819450505050505b919050565b611d7d82826040518060200160405280600081525061206f565b5050565b611d8a82611436565b611dc9576040517f08c379a0000000000000000000000000000000000000000000000000000000008152600401611dc09061349b565b60405180910390fd5b80600660008481526020019081526020016000209080519060200190611df09291906122ab565b505050565b6001816000016000828254019250508190555050565b611ea5838383604051602401611e239392919061333d565b6040516020818303038152906040527fe3849f79000000000000000000000000000000000000000000000000000000007bffffffffffffffffffffffffffffffffffffffffffffffffffffffff19166020820180517bffffffffffffffffffffffffffffffffffffffffffffffffffffffff8381831617835250505050611eaa565b505050565b60008151905060006a636f6e736f6c652e6c6f679050602083016000808483855afa5050505050565b505050565b6000611ef98473ffffffffffffffffffffffffffffffffffffffff166120ca565b15612062578373ffffffffffffffffffffffffffffffffffffffff1663150b7a02611f226114a2565b8786866040518563ffffffff1660e01b8152600401611f44949392919061328b565b602060405180830381600087803b158015611f5e57600080fd5b505af1925050508015611f8f57506040513d601f19601f82011682018060405250810190611f8c91906125ef565b60015b612012573d8060008114611fbf576040519150601f19603f3d011682016040523d82523d6000602084013e611fc4565b606091505b5060008151141561200a576040517f08c379a00000000000000000000000000000000000000000000000000000000081526004016120019061337b565b60405180910390fd5b805181602001fd5b63150b7a0260e01b7bffffffffffffffffffffffffffffffffffffffffffffffffffffffff1916817bffffffffffffffffffffffffffffffffffffffffffffffffffffffff191614915050612067565b600190505b949350505050565b61207983836120dd565b6120866000848484611ed8565b6120c5576040517f08c379a00000000000000000000000000000000000000000000000000000000081526004016120bc9061337b565b60405180910390fd5b505050565b600080823b905060008111915050919050565b600073ffffffffffffffffffffffffffffffffffffffff168273ffffffffffffffffffffffffffffffffffffffff16141561214d576040517f08c379a0000000000000000000000000000000000000000000000000000000008152600401612144906134bb565b60405180910390fd5b61215681611436565b15612196576040517f08c379a000000000000000000000000000000000000000000000000000000000815260040161218d9061339b565b60405180910390fd5b6121a260008383611ed3565b6001600360008473ffffffffffffffffffffffffffffffffffffffff1673ffffffffffffffffffffffffffffffffffffffff16815260200190815260200160002060008282546121f2919061366f565b92505081905550816002600083815260200190815260200160002060006101000a81548173ffffffffffffffffffffffffffffffffffffffff021916908373ffffffffffffffffffffffffffffffffffffffff160217905550808273ffffffffffffffffffffffffffffffffffffffff16600073ffffffffffffffffffffffffffffffffffffffff167fddf252ad1be2c89b69c2b068fc378daa952ba7f163c4a11628f55a4df523b3ef60405160405180910390a45050565b8280546122b79061383a565b90600052602060002090601f0160209004810192826122d95760008555612320565b82601f106122f257805160ff1916838001178555612320565b82800160010185558215612320579182015b8281111561231f578251825591602001919060010190612304565b5b50905061232d9190612331565b5090565b5b8082111561234a576000816000905550600101612332565b5090565b600061236161235c846135e7565b6135b6565b90508281526020810184848401111561237957600080fd5b6123848482856137f8565b509392505050565b60008135905061239b816139b3565b92915050565b6000813590506123b0816139ca565b92915050565b6000813590506123c5816139e1565b92915050565b6000815190506123da816139e1565b92915050565b600082601f8301126123f157600080fd5b813561240184826020860161234e565b91505092915050565b600081359050612419816139f8565b92915050565b60006020828403121561243157600080fd5b600061243f8482850161238c565b91505092915050565b6000806040838503121561245b57600080fd5b60006124698582860161238c565b925050602061247a8582860161238c565b9150509250929050565b60008060006060848603121561249957600080fd5b60006124a78682870161238c565b93505060206124b88682870161238c565b92505060406124c98682870161240a565b9150509250925092565b600080600080608085870312156124e957600080fd5b60006124f78782880161238c565b94505060206125088782880161238c565b93505060406125198782880161240a565b925050606085013567ffffffffffffffff81111561253657600080fd5b612542878288016123e0565b91505092959194509250565b6000806040838503121561256157600080fd5b600061256f8582860161238c565b9250506020612580858286016123a1565b9150509250929050565b6000806040838503121561259d57600080fd5b60006125ab8582860161238c565b92505060206125bc8582860161240a565b9150509250929050565b6000602082840312156125d857600080fd5b60006125e6848285016123b6565b91505092915050565b60006020828403121561260157600080fd5b600061260f848285016123cb565b91505092915050565b60006020828403121561262a57600080fd5b60006126388482850161240a565b91505092915050565b61264a81613784565b82525050565b61265981613796565b82525050565b600061266a8261362c565b6126748185613642565b9350612684818560208601613807565b61268d816139a2565b840191505092915050565b60006126a382613637565b6126ad8185613653565b93506126bd818560208601613807565b6126c6816139a2565b840191505092915050565b60006126dc82613637565b6126e68185613664565b93506126f6818560208601613807565b80840191505092915050565b6000815461270f8161383a565b6127198186613664565b94506001821660008114612734576001811461274557612778565b60ff19831686528186019350612778565b61274e85613617565b60005b8381101561277057815481890152600182019150602081019050612751565b838801955050505b50505092915050565b600061278e603283613653565b91507f4552433732313a207472616e7366657220746f206e6f6e20455243373231526560008301527f63656976657220696d706c656d656e74657200000000000000000000000000006020830152604082019050919050565b60006127f4601c83613653565b91507f4552433732313a20746f6b656e20616c7265616479206d696e746564000000006000830152602082019050919050565b6000612834600a83613664565b91507f54484952445f574f5244000000000000000000000000000000000000000000006000830152600a82019050919050565b6000612874602483613653565b91507f4552433732313a207472616e7366657220746f20746865207a65726f2061646460008301527f72657373000000000000000000000000000000000000000000000000000000006020830152604082019050919050565b60006128da601983613653565b91507f4552433732313a20617070726f766520746f2063616c6c6572000000000000006000830152602082019050919050565b600061291a602483613653565b91507f416c6c20617661696c61626c65204e4654732068617665206265656e206d696e60008301527f74656421000000000000000000000000000000000000000000000000000000006020830152604082019050919050565b6000612980600b83613664565b91507f5345434f4e445f574f52440000000000000000000000000000000000000000006000830152600b82019050919050565b60006129c0602c83613653565b91507f4552433732313a206f70657261746f7220717565727920666f72206e6f6e657860008301527f697374656e7420746f6b656e00000000000000000000000000000000000000006020830152604082019050919050565b6000612a2660eb83613664565b91507f222c20226465736372697074696f6e223a20225468657265206973206120766160008301527f7374206172726179206f6620706f737369626c6520657870657269656e63657360208301527f20696e207468697320776f726c642c2062757420746865206172656e6120262060408301527f72756c6573207765726520616c726561647920736574206265666f7265206f7560608301527f72206578697374656e63652e205768657468657220746861742075707365747360808301527f206f722064656c696768747320796f7520697320696e20796f757220636f6e7460a08301527f726f6c2e222c2022696d616765223a2022646174613a696d6167652f7376672b60c08301527f786d6c3b6261736536342c00000000000000000000000000000000000000000060e083015260eb82019050919050565b6000612b70600d83613664565b91507f3c2f746578743e3c2f7376673e000000000000000000000000000000000000006000830152600d82019050919050565b6000612bb0603883613653565b91507f4552433732313a20617070726f76652063616c6c6572206973206e6f74206f7760008301527f6e6572206e6f7220617070726f76656420666f7220616c6c00000000000000006020830152604082019050919050565b6000612c16602a83613653565b91507f4552433732313a2062616c616e636520717565727920666f7220746865207a6560008301527f726f2061646472657373000000000000000000000000000000000000000000006020830152604082019050919050565b6000612c7c602983613653565b91507f4552433732313a206f776e657220717565727920666f72206e6f6e657869737460008301527f656e7420746f6b656e00000000000000000000000000000000000000000000006020830152604082019050919050565b6000612ce2602e83613653565b91507f45524337323155524953746f726167653a2055524920736574206f66206e6f6e60008301527f6578697374656e7420746f6b656e0000000000000000000000000000000000006020830152604082019050919050565b6000612d48600283613664565b91507f227d0000000000000000000000000000000000000000000000000000000000006000830152600282019050919050565b6000612d88602083613653565b91507f4552433732313a206d696e7420746f20746865207a65726f20616464726573736000830152602082019050919050565b6000612dc8603183613653565b91507f45524337323155524953746f726167653a2055524920717565727920666f722060008301527f6e6f6e6578697374656e7420746f6b656e0000000000000000000000000000006020830152604082019050919050565b6000612e2e602c83613653565b91507f4552433732313a20617070726f76656420717565727920666f72206e6f6e657860008301527f697374656e7420746f6b656e00000000000000000000000000000000000000006020830152604082019050919050565b6000612e94602983613653565b91507f4552433732313a207472616e73666572206f6620746f6b656e2074686174206960008301527f73206e6f74206f776e00000000000000000000000000000000000000000000006020830152604082019050919050565b6000612efa602f83613653565b91507f4552433732314d657461646174613a2055524920717565727920666f72206e6f60008301527f6e6578697374656e7420746f6b656e00000000000000000000000000000000006020830152604082019050919050565b6000612f60600a83613664565b91507f7b226e616d65223a2022000000000000000000000000000000000000000000006000830152600a82019050919050565b6000612fa0602183613653565b91507f4552433732313a20617070726f76616c20746f2063757272656e74206f776e6560008301527f72000000000000000000000000000000000000000000000000000000000000006020830152604082019050919050565b6000613006600a83613664565b91507f46495253545f574f5244000000000000000000000000000000000000000000006000830152600a82019050919050565b6000613046601d83613664565b91507f646174613a6170706c69636174696f6e2f6a736f6e3b6261736536342c0000006000830152601d82019050919050565b6000613086603183613653565b91507f4552433732313a207472616e736665722063616c6c6572206973206e6f74206f60008301527f776e6572206e6f7220617070726f7665640000000000000000000000000000006020830152604082019050919050565b6130e8816137ee565b82525050565b60006130fa82846126d1565b915081905092915050565b600061311182856126d1565b915061311d82846126d1565b91508190509392505050565b600061313582866126d1565b915061314182856126d1565b915061314d82846126d1565b9150819050949350505050565b60006131668287612702565b915061317282866126d1565b915061317e82856126d1565b915061318a82846126d1565b915061319582612b63565b915081905095945050505050565b60006131ae82612827565b91506131ba82846126d1565b915081905092915050565b60006131d082612973565b91506131dc82846126d1565b915081905092915050565b60006131f282612f53565b91506131fe82856126d1565b915061320982612a19565b915061321582846126d1565b915061322082612d3b565b91508190509392505050565b600061323782612ff9565b915061324382846126d1565b915081905092915050565b600061325982613039565b915061326582846126d1565b915081905092915050565b60006020820190506132856000830184612641565b92915050565b60006080820190506132a06000830187612641565b6132ad6020830186612641565b6132ba60408301856130df565b81810360608301526132cc818461265f565b905095945050505050565b60006040820190506132ec6000830185612641565b6132f960208301846130df565b9392505050565b60006020820190506133156000830184612650565b92915050565b600060208201905081810360008301526133358184612698565b905092915050565b600060608201905081810360008301526133578186612698565b905061336660208301856130df565b6133736040830184612641565b949350505050565b6000602082019050818103600083015261339481612781565b9050919050565b600060208201905081810360008301526133b4816127e7565b9050919050565b600060208201905081810360008301526133d481612867565b9050919050565b600060208201905081810360008301526133f4816128cd565b9050919050565b600060208201905081810360008301526134148161290d565b9050919050565b60006020820190508181036000830152613434816129b3565b9050919050565b6000602082019050818103600083015261345481612ba3565b9050919050565b6000602082019050818103600083015261347481612c09565b9050919050565b6000602082019050818103600083015261349481612c6f565b9050919050565b600060208201905081810360008301526134b481612cd5565b9050919050565b600060208201905081810360008301526134d481612d7b565b9050919050565b600060208201905081810360008301526134f481612dbb565b9050919050565b6000602082019050818103600083015261351481612e21565b9050919050565b6000602082019050818103600083015261353481612e87565b9050919050565b6000602082019050818103600083015261355481612eed565b9050919050565b6000602082019050818103600083015261357481612f93565b9050919050565b6000602082019050818103600083015261359481613079565b9050919050565b60006020820190506135b060008301846130df565b92915050565b6000604051905081810181811067ffffffffffffffff821117156135dd576135dc613973565b5b8060405250919050565b600067ffffffffffffffff82111561360257613601613973565b5b601f19601f8301169050602081019050919050565b60008190508160005260206000209050919050565b600081519050919050565b600081519050919050565b600082825260208201905092915050565b600082825260208201905092915050565b600081905092915050565b600061367a826137ee565b9150613685836137ee565b9250827fffffffffffffffffffffffffffffffffffffffffffffffffffffffffffffffff038211156136ba576136b96138e6565b5b828201905092915050565b60006136d0826137ee565b91506136db836137ee565b9250826136eb576136ea613915565b5b828204905092915050565b6000613701826137ee565b915061370c836137ee565b9250817fffffffffffffffffffffffffffffffffffffffffffffffffffffffffffffffff0483118215151615613745576137446138e6565b5b828202905092915050565b600061375b826137ee565b9150613766836137ee565b925082821015613779576137786138e6565b5b828203905092915050565b600061378f826137ce565b9050919050565b60008115159050919050565b60007fffffffff0000000000000000000000000000000000000000000000000000000082169050919050565b600073ffffffffffffffffffffffffffffffffffffffff82169050919050565b6000819050919050565b82818337600083830152505050565b60005b8381101561382557808201518184015260208101905061380a565b83811115613834576000848401525b50505050565b6000600282049050600182168061385257607f821691505b6020821081141561386657613865613944565b5b50919050565b6000613877826137ee565b91507fffffffffffffffffffffffffffffffffffffffffffffffffffffffffffffffff8214156138aa576138a96138e6565b5b600182019050919050565b60006138c0826137ee565b91506138cb836137ee565b9250826138db576138da613915565b5b828206905092915050565b7f4e487b7100000000000000000000000000000000000000000000000000000000600052601160045260246000fd5b7f4e487b7100000000000000000000000000000000000000000000000000000000600052601260045260246000fd5b7f4e487b7100000000000000000000000000000000000000000000000000000000600052602260045260246000fd5b7f4e487b7100000000000000000000000000000000000000000000000000000000600052604160045260246000fd5b6000601f19601f8301169050919050565b6139bc81613784565b81146139c757600080fd5b50565b6139d381613796565b81146139de57600080fd5b50565b6139ea816137a2565b81146139f557600080fd5b50565b613a01816137ee565b8114613a0c57600080fd5b5056fe416e204e465420772f20494420257320686173206265656e206d696e74656420746f2025734142434445464748494a4b4c4d4e4f505152535455565758595a6162636465666768696a6b6c6d6e6f707172737475767778797a303132333435363738392b2fa26469706673582212200008ee254373744caf1ab4aa3c9a7570c6698cfbe9f7a004181b1a38b6fe942864736f6c634300080000333c73766720786d6c6e733d27687474703a2f2f7777772e77332e6f72672f323030302f73766727207072657365727665417370656374526174696f3d27784d696e594d696e206d656574272076696577426f783d273020302033353020333530273e3c7374796c653e2e62617365207b2066696c6c3a2077686974653b20666f6e742d66616d696c793a2073657269663b20666f6e742d73697a653a20323470783b207d3c2f7374796c653e3c726563742077696474683d273130302527206865696768743d2731303025272066696c6c3d27626c61636b27202f3e3c7465787420783d273530252720793d273530252720636c6173733d27626173652720646f6d696e616e742d626173656c696e653d276d6964646c652720746578742d616e63686f723d276d6964646c65273e57656c636f6d6520746f20746865207262616e6b2e657468204e465420636f6e7472616374202d207072657061726520666f72206368616f7321",
  "linkReferences": {},
  "deployedLinkReferences": {}
}